{
  "_format": "hh-sol-artifact-1",
  "contractName": "DC",
  "sourceName": "contracts/DC.sol",
  "abi": [
    {
      "inputs": [
        {
          "components": [
            {
              "internalType": "uint256",
              "name": "baseRentalPrice",
              "type": "uint256"
            },
            {
              "internalType": "address",
              "name": "revenueAccount",
              "type": "address"
            },
            {
              "internalType": "address",
              "name": "registrarController",
              "type": "address"
            },
            {
              "internalType": "uint256",
              "name": "duration",
              "type": "uint256"
            },
            {
              "internalType": "address",
              "name": "resolver",
              "type": "address"
            },
            {
              "internalType": "bool",
              "name": "reverseRecord",
              "type": "bool"
            },
            {
              "internalType": "uint32",
              "name": "fuses",
              "type": "uint32"
            },
            {
              "internalType": "uint64",
              "name": "wrapperExpiry",
              "type": "uint64"
            }
          ],
          "internalType": "struct DC.InitConfiguration",
          "name": "_initConfig",
          "type": "tuple"
        }
      ],
      "stateMutability": "nonpayable",
      "type": "constructor"
    },
    {
      "inputs": [
        {
          "internalType": "uint256",
          "name": "duration",
          "type": "uint256"
        },
        {
          "internalType": "string",
          "name": "reason",
          "type": "string"
        }
      ],
      "name": "setDurationFailed",
      "type": "error"
    },
    {
      "anonymous": false,
      "inputs": [
        {
          "indexed": true,
          "internalType": "string",
          "name": "name",
          "type": "string"
        },
        {
          "indexed": true,
          "internalType": "address",
          "name": "renter",
          "type": "address"
        },
        {
          "indexed": false,
          "internalType": "uint256",
          "name": "price",
          "type": "uint256"
        },
        {
          "indexed": false,
          "internalType": "string",
          "name": "url",
          "type": "string"
        }
      ],
      "name": "NameRented",
      "type": "event"
    },
    {
      "anonymous": false,
      "inputs": [
        {
          "indexed": true,
          "internalType": "address",
          "name": "previousOwner",
          "type": "address"
        },
        {
          "indexed": true,
          "internalType": "address",
          "name": "newOwner",
          "type": "address"
        }
      ],
      "name": "OwnershipTransferred",
      "type": "event"
    },
    {
      "anonymous": false,
      "inputs": [
        {
          "indexed": false,
          "internalType": "address",
          "name": "account",
          "type": "address"
        }
      ],
      "name": "Paused",
      "type": "event"
    },
    {
      "anonymous": false,
      "inputs": [
        {
          "indexed": false,
          "internalType": "address",
          "name": "from",
          "type": "address"
        },
        {
          "indexed": false,
          "internalType": "address",
          "name": "to",
          "type": "address"
        }
      ],
      "name": "RevenueAccountChanged",
      "type": "event"
    },
    {
      "anonymous": false,
      "inputs": [
        {
          "indexed": true,
          "internalType": "string",
          "name": "name",
          "type": "string"
        },
        {
          "indexed": true,
          "internalType": "address",
          "name": "renter",
          "type": "address"
        },
        {
          "indexed": false,
          "internalType": "string",
          "name": "oldUrl",
          "type": "string"
        },
        {
          "indexed": false,
          "internalType": "string",
          "name": "newUrl",
          "type": "string"
        }
      ],
      "name": "URLUpdated",
      "type": "event"
    },
    {
      "anonymous": false,
      "inputs": [
        {
          "indexed": false,
          "internalType": "address",
          "name": "account",
          "type": "address"
        }
      ],
      "name": "Unpaused",
      "type": "event"
    },
    {
      "inputs": [],
      "name": "baseRentalPrice",
      "outputs": [
        {
          "internalType": "uint256",
          "name": "",
          "type": "uint256"
        }
      ],
      "stateMutability": "view",
      "type": "function"
    },
    {
      "inputs": [],
      "name": "duration",
      "outputs": [
        {
          "internalType": "uint256",
          "name": "",
          "type": "uint256"
        }
      ],
      "stateMutability": "view",
      "type": "function"
    },
    {
      "inputs": [],
      "name": "fuses",
      "outputs": [
        {
          "internalType": "uint32",
          "name": "",
          "type": "uint32"
        }
      ],
      "stateMutability": "view",
      "type": "function"
    },
    {
      "inputs": [
        {
          "internalType": "string",
          "name": "name",
          "type": "string"
        }
      ],
      "name": "getENSPrice",
      "outputs": [
        {
          "internalType": "uint256",
          "name": "",
          "type": "uint256"
        }
      ],
      "stateMutability": "nonpayable",
      "type": "function"
    },
    {
      "inputs": [],
      "name": "initialized",
      "outputs": [
        {
          "internalType": "bool",
          "name": "",
          "type": "bool"
        }
      ],
      "stateMutability": "view",
      "type": "function"
    },
    {
      "inputs": [
        {
          "internalType": "uint256",
          "name": "",
          "type": "uint256"
        }
      ],
      "name": "keys",
      "outputs": [
        {
          "internalType": "bytes32",
          "name": "",
          "type": "bytes32"
        }
      ],
      "stateMutability": "view",
      "type": "function"
    },
    {
      "inputs": [],
      "name": "lastCreated",
      "outputs": [
        {
          "internalType": "string",
          "name": "",
          "type": "string"
        }
      ],
      "stateMutability": "view",
      "type": "function"
    },
    {
      "inputs": [],
      "name": "lastRented",
      "outputs": [
        {
          "internalType": "string",
          "name": "",
          "type": "string"
        }
      ],
      "stateMutability": "view",
      "type": "function"
    },
    {
      "inputs": [],
      "name": "numRecords",
      "outputs": [
        {
          "internalType": "uint256",
          "name": "",
          "type": "uint256"
        }
      ],
      "stateMutability": "view",
      "type": "function"
    },
    {
      "inputs": [],
      "name": "owner",
      "outputs": [
        {
          "internalType": "address",
          "name": "",
          "type": "address"
        }
      ],
      "stateMutability": "view",
      "type": "function"
    },
    {
      "inputs": [],
      "name": "pause",
      "outputs": [],
      "stateMutability": "nonpayable",
      "type": "function"
    },
    {
      "inputs": [],
      "name": "paused",
      "outputs": [
        {
          "internalType": "bool",
          "name": "",
          "type": "bool"
        }
      ],
      "stateMutability": "view",
      "type": "function"
    },
    {
      "inputs": [],
      "name": "registrarController",
      "outputs": [
        {
          "internalType": "address",
          "name": "",
          "type": "address"
        }
      ],
      "stateMutability": "view",
      "type": "function"
    },
    {
      "inputs": [],
      "name": "renounceOwnership",
      "outputs": [],
      "stateMutability": "nonpayable",
      "type": "function"
    },
    {
      "inputs": [
        {
          "internalType": "string",
          "name": "name",
          "type": "string"
        },
        {
          "internalType": "address",
          "name": "owner",
          "type": "address"
        },
        {
          "internalType": "bytes32",
          "name": "secret",
          "type": "bytes32"
        },
        {
          "internalType": "string",
          "name": "url",
          "type": "string"
        },
        {
          "internalType": "bytes[]",
          "name": "data",
          "type": "bytes[]"
        }
      ],
      "name": "rent",
      "outputs": [],
      "stateMutability": "payable",
      "type": "function"
    },
    {
      "inputs": [],
      "name": "resolver",
      "outputs": [
        {
          "internalType": "address",
          "name": "",
          "type": "address"
        }
      ],
      "stateMutability": "view",
      "type": "function"
    },
    {
      "inputs": [],
      "name": "revenueAccount",
      "outputs": [
        {
          "internalType": "address",
          "name": "",
          "type": "address"
        }
      ],
      "stateMutability": "view",
      "type": "function"
    },
    {
      "inputs": [],
      "name": "reverseRecord",
      "outputs": [
        {
          "internalType": "bool",
          "name": "",
          "type": "bool"
        }
      ],
      "stateMutability": "view",
      "type": "function"
    },
    {
      "inputs": [
        {
          "internalType": "uint256",
          "name": "_baseRentalPrice",
          "type": "uint256"
        }
      ],
      "name": "setBaseRentalPrice",
      "outputs": [],
      "stateMutability": "nonpayable",
      "type": "function"
    },
    {
      "inputs": [
        {
          "internalType": "uint256",
          "name": "_duration",
          "type": "uint256"
        }
      ],
      "name": "setDuration",
      "outputs": [],
      "stateMutability": "nonpayable",
      "type": "function"
    },
    {
      "inputs": [
        {
          "internalType": "uint32",
          "name": "_fuses",
          "type": "uint32"
        }
      ],
      "name": "setFuses",
      "outputs": [],
      "stateMutability": "nonpayable",
      "type": "function"
    },
    {
      "inputs": [
        {
          "internalType": "address",
          "name": "_registrarController",
          "type": "address"
        }
      ],
      "name": "setRegistrarController",
      "outputs": [],
      "stateMutability": "nonpayable",
      "type": "function"
    },
    {
      "inputs": [
        {
          "internalType": "address",
          "name": "_resolver",
          "type": "address"
        }
      ],
      "name": "setResolver",
      "outputs": [],
      "stateMutability": "nonpayable",
      "type": "function"
    },
    {
      "inputs": [
        {
          "internalType": "address",
          "name": "_revenueAccount",
          "type": "address"
        }
      ],
      "name": "setRevenueAccount",
      "outputs": [],
      "stateMutability": "nonpayable",
      "type": "function"
    },
    {
      "inputs": [
        {
          "internalType": "bool",
          "name": "_reverseRecord",
          "type": "bool"
        }
      ],
      "name": "setReverseRecord",
      "outputs": [],
      "stateMutability": "nonpayable",
      "type": "function"
    },
    {
      "inputs": [
        {
          "internalType": "uint64",
          "name": "_wrapperExpiry",
          "type": "uint64"
        }
      ],
      "name": "setWrapperExpiry",
      "outputs": [],
      "stateMutability": "nonpayable",
      "type": "function"
    },
    {
      "inputs": [
        {
          "internalType": "address",
          "name": "newOwner",
          "type": "address"
        }
      ],
      "name": "transferOwnership",
      "outputs": [],
      "stateMutability": "nonpayable",
      "type": "function"
    },
    {
      "inputs": [],
      "name": "unpause",
      "outputs": [],
      "stateMutability": "nonpayable",
      "type": "function"
    },
    {
      "inputs": [],
      "name": "withdraw",
      "outputs": [],
      "stateMutability": "nonpayable",
      "type": "function"
    },
    {
      "inputs": [],
      "name": "wrapperExpiry",
      "outputs": [
        {
          "internalType": "uint64",
          "name": "",
          "type": "uint64"
        }
      ],
      "stateMutability": "view",
      "type": "function"
    }
  ],
  "bytecode": "0x608060405260035460068054680100000000000000006001600160a01b03909316928302600160401b600160e01b0319909116179055600780546001600160a01b03191690911790553480156200005557600080fd5b506040516200199d3803806200199d833981016040819052620000789162000422565b6000805460ff191690556200008d3362000121565b80516200009a906200017a565b6020810151620000aa9062000189565b6020810151620000ba9062000189565b6040810151620000ca90620001fc565b6060810151620000da9062000228565b6080810151620000ea90620002b3565b60a0810151620000fa90620002df565b60c08101516200010a9062000307565b60e08101516200011a9062000337565b50620004f4565b600080546001600160a01b03838116610100818102610100600160a81b0319851617855560405193049190911692909183917f8be0079c531659141344cd1fd0a4f28419497f9722a3daafe3b4186f6b6457e091a35050565b6200018462000363565b600155565b6200019362000363565b600254604080516001600160a01b03928316815291831660208301527fe03b0e59900b6347a6bdef98fe51689d53064c5235a2ca9fc10a27c497ec7307910160405180910390a1600280546001600160a01b0319166001600160a01b0392909216919091179055565b6200020662000363565b600380546001600160a01b0319166001600160a01b0392909216919091179055565b6200023262000363565b6301e13380811015620002ae57806040516377b7b52f60e01b8152600401620002a5918152604060208201819052602a908201527f4475726174696f6e206c657373207468616e20746865206d696e696d756d206f6060820152696620333635206461797360b01b608082015260a00190565b60405180910390fd5b600455565b620002bd62000363565b600580546001600160a01b0319166001600160a01b0392909216919091179055565b620002e962000363565b60058054911515600160a01b0260ff60a01b19909216919091179055565b6200031162000363565b6005805463ffffffff909216600160a81b0263ffffffff60a81b19909216919091179055565b6200034162000363565b600680546001600160401b0319166001600160401b0392909216919091179055565b6000546001600160a01b03610100909104163314620003c55760405162461bcd60e51b815260206004820181905260248201527f4f776e61626c653a2063616c6c6572206973206e6f7420746865206f776e65726044820152606401620002a5565b565b80516001600160a01b0381168114620003df57600080fd5b919050565b80518015158114620003df57600080fd5b805163ffffffff81168114620003df57600080fd5b80516001600160401b0381168114620003df57600080fd5b60006101008083850312156200043757600080fd5b604051908101906001600160401b03821181831017156200046857634e487b7160e01b600052604160045260246000fd5b81604052835181526200047e60208501620003c7565b60208201526200049160408501620003c7565b604082015260608401516060820152620004ae60808501620003c7565b6080820152620004c160a08501620003e4565b60a0820152620004d460c08501620003f5565b60c0820152620004e760e085016200040a565b60e0820152949350505050565b61149980620005046000396000f3fe6080604052600436106101cd5760003560e01c8063715018a6116100f7578063b5246c8a11610095578063f2fde38b11610064578063f2fde38b1461051e578063f5dc7d561461053e578063f6be71d11461055e578063f9cd32c51461057e57600080fd5b8063b5246c8a146104a9578063b5d1990d146104c9578063dbafb570146104de578063dc2e83e2146104fe57600080fd5b80638456cb59116100d15780638456cb59146104495780638da5cb5b1461045e578063a3e6229d14610481578063afff5a641461049457600080fd5b8063715018a6146103f457806372c689181461040957806374c04e361461042957600080fd5b806329448e1d1161016f5780633f4ba83a1161013e5780633f4ba83a1461036d578063407fc609146103825780634e543b26146103bc5780635c975abb146103dc57600080fd5b806329448e1d146102dd57806330027f3b146102ff5780633813bb7e1461031f5780633ccfd60b1461035857600080fd5b80630fb5a6b4116101ab5780630fb5a6b414610253578063158ef93e146102695780631e1911cc1461029a5780632143f93b146102bb57600080fd5b806304f3bcec146101d25780630cb6aaf11461020f5780630f75e5c01461023d575b600080fd5b3480156101de57600080fd5b506005546101f2906001600160a01b031681565b6040516001600160a01b0390911681526020015b60405180910390f35b34801561021b57600080fd5b5061022f61022a366004610f2e565b61059e565b604051908152602001610206565b34801561024957600080fd5b5061022f60015481565b34801561025f57600080fd5b5061022f60045481565b34801561027557600080fd5b5060005461028a90600160a81b900460ff1681565b6040519015158152602001610206565b3480156102a657600080fd5b5060055461028a90600160a01b900460ff1681565b3480156102c757600080fd5b506102d06105bf565b6040516102069190610f8d565b3480156102e957600080fd5b506102fd6102f8366004610fbc565b61064d565b005b34801561030b57600080fd5b506102fd61031a366004610fbc565b610677565b34801561032b57600080fd5b5060055461034390600160a81b900463ffffffff1681565b60405163ffffffff9091168152602001610206565b34801561036457600080fd5b506102fd6106e8565b34801561037957600080fd5b506102fd610828565b34801561038e57600080fd5b506006546103a39067ffffffffffffffff1681565b60405167ffffffffffffffff9091168152602001610206565b3480156103c857600080fd5b506102fd6103d7366004610fbc565b61083a565b3480156103e857600080fd5b5060005460ff1661028a565b34801561040057600080fd5b506102fd610864565b34801561041557600080fd5b5061022f610424366004610fed565b610876565b34801561043557600080fd5b506102fd61044436600461109e565b610915565b34801561045557600080fd5b506102fd610941565b34801561046a57600080fd5b5060005461010090046001600160a01b03166101f2565b6102fd61048f366004611111565b610951565b3480156104a057600080fd5b506102d0610b0e565b3480156104b557600080fd5b506102fd6104c43660046111f8565b610b1b565b3480156104d557600080fd5b50600a5461022f565b3480156104ea57600080fd5b506102fd6104f9366004610f2e565b610b41565b34801561050a57600080fd5b506102fd61051936600461121a565b610b4e565b34801561052a57600080fd5b506102fd610539366004610fbc565b610b7c565b34801561054a57600080fd5b506002546101f2906001600160a01b031681565b34801561056a57600080fd5b506102fd610579366004610f2e565b610bf2565b34801561058a57600080fd5b506003546101f2906001600160a01b031681565b600a81815481106105ae57600080fd5b600091825260209091200154905081565b600880546105cc90611240565b80601f01602080910402602001604051908101604052809291908181526020018280546105f890611240565b80156106455780601f1061061a57610100808354040283529160200191610645565b820191906000526020600020905b81548152906001019060200180831161062857829003601f168201915b505050505081565b610655610c70565b600380546001600160a01b0319166001600160a01b0392909216919091179055565b61067f610c70565b600254604080516001600160a01b03928316815291831660208301527fe03b0e59900b6347a6bdef98fe51689d53064c5235a2ca9fc10a27c497ec7307910160405180910390a1600280546001600160a01b0319166001600160a01b0392909216919091179055565b60005461010090046001600160a01b03166001600160a01b0316336001600160a01b0316148061072257506002546001600160a01b031633145b6107825760405162461bcd60e51b815260206004820152602660248201527f443144433a206d757374206265206f776e6572206f7220726576656e7565206160448201526518d8dbdd5b9d60d21b60648201526084015b60405180910390fd5b6002546040516000916001600160a01b03169047908381818185875af1925050503d80600081146107cf576040519150601f19603f3d011682016040523d82523d6000602084013e6107d4565b606091505b50509050806108255760405162461bcd60e51b815260206004820152601860248201527f443144433a206661696c656420746f20776974686472617700000000000000006044820152606401610779565b50565b610830610c70565b610838610cd0565b565b610842610c70565b600580546001600160a01b0319166001600160a01b0392909216919091179055565b61086c610c70565b6108386000610d22565b600654600480546040516383e7f6ff60e01b81526000938493680100000000000000009091046001600160a01b0316926383e7f6ff926108b9928892910161127a565b60408051808303816000875af11580156108d7573d6000803e3d6000fd5b505050506040513d601f19601f820116820180604052508101906108fb919061129c565b6020810151815191925061090e91611301565b9392505050565b61091d610c70565b6006805467ffffffffffffffff191667ffffffffffffffff92909216919091179055565b610949610c70565b610838610d7b565b610959610db8565b60808711156109a05760405162461bcd60e51b8152602060048201526013602482015272443144433a206e616d6520746f6f206c6f6e6760681b6044820152606401610779565b60006109e189898080601f01602080910402602001604051908101604052809392919081815260200183838082843760009201919091525061087692505050565b905034816001546109f29190611301565b1115610a405760405162461bcd60e51b815260206004820152601860248201527f44433a20696e73756666696369656e74207061796d656e7400000000000000006044820152606401610779565b610a4f89898989878787610dfe565b600081600154610a5f9190611301565b610a69903461131a565b90508015610b0257604051600090339083908381818185875af1925050503d8060008114610ab3576040519150601f19603f3d011682016040523d82523d6000602084013e610ab8565b606091505b5050905080610b005760405162461bcd60e51b815260206004820152601460248201527363616e6e6f7420726566756e642065786365737360601b6044820152606401610779565b505b50505050505050505050565b600980546105cc90611240565b610b23610c70565b60058054911515600160a01b0260ff60a01b19909216919091179055565b610b49610c70565b600155565b610b56610c70565b6005805463ffffffff909216600160a81b0263ffffffff60a81b19909216919091179055565b610b84610c70565b6001600160a01b038116610be95760405162461bcd60e51b815260206004820152602660248201527f4f776e61626c653a206e6577206f776e657220697320746865207a65726f206160448201526564647265737360d01b6064820152608401610779565b61082581610d22565b610bfa610c70565b6301e13380811015610c6b57806040516377b7b52f60e01b8152600401610779918152604060208201819052602a908201527f4475726174696f6e206c657373207468616e20746865206d696e696d756d206f6060820152696620333635206461797360b01b608082015260a00190565b600455565b6000546001600160a01b036101009091041633146108385760405162461bcd60e51b815260206004820181905260248201527f4f776e61626c653a2063616c6c6572206973206e6f7420746865206f776e65726044820152606401610779565b610cd8610ee5565b6000805460ff191690557f5db9ee0a495bf2e6ff9c91a7834c1ba4fdd244a5e8aa4e537bd38aeae4b073aa335b6040516001600160a01b03909116815260200160405180910390a1565b600080546001600160a01b03838116610100818102610100600160a81b0319851617855560405193049190911692909183917f8be0079c531659141344cd1fd0a4f28419497f9722a3daafe3b4186f6b6457e091a35050565b610d83610db8565b6000805460ff191660011790557f62e78cea01bee320cd4e420270b5ea74000d11b0c9f74754ebdbfc544b05a258610d053390565b60005460ff16156108385760405162461bcd60e51b815260206004820152601060248201526f14185d5cd8589b194e881c185d5cd95960821b6044820152606401610779565b610e06610db8565b600660089054906101000a90046001600160a01b03166001600160a01b0316637acaaf26828989896004548a600560009054906101000a90046001600160a01b03168b8b600560149054906101000a900460ff16600560159054906101000a900463ffffffff16600660009054906101000a900467ffffffffffffffff166040518d63ffffffff1660e01b8152600401610eaa9b9a99989796959493929190611356565b6000604051808303818588803b158015610ec357600080fd5b505af1158015610ed7573d6000803e3d6000fd5b505050505050505050505050565b60005460ff166108385760405162461bcd60e51b815260206004820152601460248201527314185d5cd8589b194e881b9bdd081c185d5cd95960621b6044820152606401610779565b600060208284031215610f4057600080fd5b5035919050565b6000815180845260005b81811015610f6d57602081850181015186830182015201610f51565b506000602082860101526020601f19601f83011685010191505092915050565b60208152600061090e6020830184610f47565b80356001600160a01b0381168114610fb757600080fd5b919050565b600060208284031215610fce57600080fd5b61090e82610fa0565b634e487b7160e01b600052604160045260246000fd5b600060208284031215610fff57600080fd5b813567ffffffffffffffff8082111561101757600080fd5b818401915084601f83011261102b57600080fd5b81358181111561103d5761103d610fd7565b604051601f8201601f19908116603f0116810190838211818310171561106557611065610fd7565b8160405282815287602084870101111561107e57600080fd5b826020860160208301376000928101602001929092525095945050505050565b6000602082840312156110b057600080fd5b813567ffffffffffffffff8116811461090e57600080fd5b60008083601f8401126110da57600080fd5b50813567ffffffffffffffff8111156110f257600080fd5b60208301915083602082850101111561110a57600080fd5b9250929050565b60008060008060008060008060a0898b03121561112d57600080fd5b883567ffffffffffffffff8082111561114557600080fd5b6111518c838d016110c8565b909a50985088915061116560208c01610fa0565b975060408b0135965060608b013591508082111561118257600080fd5b61118e8c838d016110c8565b909650945060808b01359150808211156111a757600080fd5b818b0191508b601f8301126111bb57600080fd5b8135818111156111ca57600080fd5b8c60208260051b85010111156111df57600080fd5b6020830194508093505050509295985092959890939650565b60006020828403121561120a57600080fd5b8135801515811461090e57600080fd5b60006020828403121561122c57600080fd5b813563ffffffff8116811461090e57600080fd5b600181811c9082168061125457607f821691505b60208210810361127457634e487b7160e01b600052602260045260246000fd5b50919050565b60408152600061128d6040830185610f47565b90508260208301529392505050565b6000604082840312156112ae57600080fd5b6040516040810181811067ffffffffffffffff821117156112d1576112d1610fd7565b604052825181526020928301519281019290925250919050565b634e487b7160e01b600052601160045260246000fd5b80820180821115611314576113146112eb565b92915050565b81810381811115611314576113146112eb565b81835281816020850137506000828201602090810191909152601f909101601f19169091010190565b6101208152600061136c61012083018d8f61132d565b6001600160a01b038c8116602085810191909152604085018d9052606085018c9052908a16608085015283820360a0850152878252818101600589901b830182018a60005b8b81101561142157858303601f190184528135368e9003601e190181126113d757600080fd5b8d01858101903567ffffffffffffffff8111156113f357600080fd5b80360382131561140257600080fd5b61140d85828461132d565b9587019594505050908401906001016113b1565b505088151560c0870152935061143692505050565b63ffffffff841660e083015267ffffffffffffffff83166101008301529c9b50505050505050505050505056fea2646970667358221220ff3bcb5a8e3df1cf45eb1e759fffa34c1c56c6f15b1c7216daed7faeacd6da8464736f6c63430008110033",
  "linkReferences": {},
  "deployedLinkReferences": {}
}